:03000000020BF3FD
:0C0BF300787FE4F6D8FD75817E020C3A94
:10104000546D703A25642E256420595A2D2564204C
:01105000009F
:100E3200012200012306102500000000000000002E
:100E42000000000000000000103520202020534D3B
:100E52004F4B453A59455320202010452020202051
:0F0E6200534D4F4B453A4E4F202020200124196D
:100CFD00755901A2A1B392001210511210081210D1
:100D0D00617F647E00120EBAD296D2A0D2A17F016D
:100D1D0012106E120D75120F9B120C7F20A029E57B
:100D2D0059640170237F0AFE120EBAE4F55920A012
:100D3D001D0524C2967F32FE120EBAD296E52464AA
:100D4D002D700B752414800630A00375590130A148
:100D5D00057522018003752202A2A1300001B34066
:080D6D00B2E4F523B20080ABF3
:100C7F00E4F55A755B011210828F5AAC24E412030B
:100C8F002FAB58AA57A956A8551202AC405AE4FFE9
:100C9F00FE7D487C42AB58AA57A956A8551202AC04
:100CAF0060025044E55A7040E55B6401703A7F146E
:100CBF00FE120EBAE4F55BAC2412032FAB58AA5701
:100CCF00A956A8551202AC4024E4FFFE7D487C4291
:100CDF00AB58AA57A956A8551202AC6002500EE5A0
:0D0CEF005A700AF523C29622D296755B0159
:010CFC0022D5
:100F9B001210617F0A7E00120EBA120EDBE4FBFA0E
:100FAB00798078C01200158F588E578D568C55222C
:100B5F00AF58AE57AD56AC551203638E5D8F5E75B1
:100B6F005F00852460E4FFFE7DC87C42AB58AA5726
:100B7F00A956A855120106120363E47B64FAF9F82B
:100B8F0012061AAE02AF037566FF756710756840DF
:100B9F00855D69855E6A8E6B8F6C855F6D85606E16
:100BAF007B007A00792512074CE4F561F562AF629C
:100BBF0074252FF8E6FBE4FD120FBB121082EFAF86
:100BCF006270047435800274452FF8E6FB7D0112C4
:100BDF000FBB0562E56270020561C39410E5619475
:030BEF000040CBF8
:010BF20022E0
:0910820020A2037F00227F01225D
:100D7500E5226401702AC3E52394057480948050AC
:100D85001DD290C291120EB2120EAEC290C291D275
:100D950092120EB4C290C291C292D2938032803721
:100DA500E52264027039C3E523940574809480506C
:100DB50026C290C291C292D293120EB6C290C2912F
:100DC500D292120EB4120EAED290C291C292C293BA
:100DD5007F057E00020EBAC290C291C292C29322D2
:03000B00020DE5FE
:100DE500C0E0C0F0C083C082C0D075D000C000C0D4
:0D0DF50001C002C003C004C005C006C00755
:100E0200758CD8758AF0055CE55C64C87007F55C82
:050E12000523120B5F37
:100E1700D007D006D005D004D003D002D001D0002F
:0B0E2700D0D0D082D083D0F0D0E032D9
:10105100758901758CD8758AF0D2AFD2A9D28C224C
:0C0EAE00C290D291C292C2937F057E00D8
:100EBA00E4FDEDC39FEE6480F87480985012E4FC60
:100ECA00ECC3946E7480948050030C80F30D80E21E
:010EDA0022F5
:080F2D00C2A58F807F017E0048
:100F3500D3EF9400EE940040147D7B7C00ED1D7092
:0D0F4500011CED4C70F7EF1F70E61E80E3FD
:010F5200227C
:0A106E00C2A4120F2DD2A6C2A622C2
:0A107800D2A4120F2DD2A6C2A622A8
:101008007F3C12106E7F0C12106E7F0612106E7FDE
:041018000102106E53
:100FBB00AE0753050153060FED600343064043068E
:0B0FCB0080AF0612106EAF030210781A
:080E72008D088A098B0AA9070B
:100E7A00E4FA53080153010FE50A2AF582E4350919
:100E8A00F583E493FBD39419748094804015E9D3D5
:100E9A00940F7480948050E0AF01AD08120FBB0A22
:030EAA000980D5E7
:010EAD002222
:10101C007580FFC2A4D2A5C2A6120F31D2A6E5805C
:02102C0033226D
:0D106100120FD67FCC120F797F44020F7959
:100EDB00120FD67FCC120F797FBE120F79120F53E0
:100EEB008F5A120F53EFFEE55AFFFDAC06EC1203BF
:0B0EFB002AE4FBFA7980784102020F24
:100FD600D2B7C2B77FF7DFFED2B77F20DFFEA2B758
:090FE600E433FE7FF7DFFEAF06E5
:010FEF0022DF
:10102E00C2B77E04DEFEEF24FF92B77E18DEFED23C
:01103E00B7FA
:01103F00228E
:100FF000C2B77F02DFFED2B77F02DFFEA2B7E433C3
:07100000FE7F18DFFEAF06C2
:0110070022C6
:020F7900AD07C2
:100F7B00E4FCECC39408748094805013A8047401AF
:0F0F8B00088002C333D8FC5DFF12102E0C80E3E8
:010F9A002234
:100F5300E4FDFCECC39408748094805016120FF0E7
:100F6300EF600DA8047401088002C333D8FC420566
:050F73000C80E0AF0559
:010F78002256
:10000E000203CFE86480F8E933E83360110460F04E
:10001E00ED33EC337009E8FCE9FDEAFEEBFF220458
:10002E0060DED3EB9FEA9EE99DE8C2E78CF0C2F753
:10003E0095F0400CE8CCF8E9CDF9EACEFAEBCFFB1F
:10004E0012039A85D0F05804700320D5B3E80470DB
:10005E00075002B2D50203D992D5EC0460F7E4CC76
:10006E00C0E0C398F8603B94186008400DD0E0FBE8
:10007E000203B1E4FBFAC9FC8028E830E406E4C9C7
:10008E00FBE4CAFCE830E305E4C9CACBFCE854073C
:10009E006010F8C3E913F9EA13FAEB13FBEC13FC47
:1000AE00D8F130F52FC3E49CFCEF9BFFEE9AFEEDEA
:1000BE0099FDD0E0FBEF4E4D4C701222DB03020394
:1000CE00D6EC2CFCEF33FFEE33FEED33FDED30E7D7
:1000DE00EB0203B1EF2BFFEE3AFEED39FDD0E0FB64
:1000EE0050130BBB00030203D9ED13FDEE13FEEF0D
:0800FE0013FFEC13FC0203B137
:10010600EC4D6011E8497017ED33EC3304600DE4F3
:10011600FCFFFEFD22E933E8330470F80203CF1238
:10012600039A58046009E4CC248150062850090239
:1001360003D92840030203D6C0E0EB4A7044B980D5
:1001460006D0E0FB0203C5EF4E701CBD8008EBFF36
:10015600EAFEE9FD80EBE98DF0A4FEE5F00201EF91
:10016600E9CDF9EAFEEBFFEF89F0A4FCE5F0CE89D4
:10017600F0A42EFFE435F0CD89F0A42DFEE435F091
:100186008067EF4E7005BD80D780C3EF8BF0A4ACBF
:10019600F0EE8BF0A42CFCE435F0F8EF8AF0A42CFA
:1001A600E5F038FCE433CB8DF0A42CFCE5F03BF80D
:1001B600EE8AF0A42CFCE5F038F8E433CF89F0A4FD
:1001C6002CFCE5F038CF3400CE89F0A42FFFE5F003
:1001D6003EFEE433C98DF0A42EFEE5F039CD8AF05B
:1001E600A42FFFE5F03EFEE43DFD33D0E0FB5007D3
:1001F6000BBB000F0203D9EC2CFCEF33FFEE33FEF2
:06020600ED33FD0203B11F
:10020C000203D9EC5D046005E8590470030203CFC6
:10021C0012039A580460F6EC4860F2EC7004FDFE90
:10022C00FF22C860DB2481C85009C39860025006C5
:10023C000203D69850CAF582E9294B4A7005AB8265
:10024C000203C575F0007C1A7880C3EF9BEE9AED23
:10025C0099400DC3EF9BFFEE9AFEED99FDE842F03D
:10026C00DC23ACF0D0E0FFD0E0FED0E0FDAB822090
:10027C00E7101BEB60BAEC2CFCEF33FFEE33FEED1A
:10028C0033FD0203B1E803F830E705C0F075F00068
:10029C00EF2FFFEE33FEED33FD40B830E7C280AAFE
:1002AC0074F8CC6480CCC86480C8F58204604FC3F9
:1002BC00EB9FF5F0EA9E42F0E99D42F0E89C45F098
:1002CC00603C501DE5825FFFE582D313CB5BCBF422
:1002DC002B5582FB50280ABA002409B9002008804B
:1002EC001DE5825BFBE582D313CF5FCFF4C3132FE5
:1002FC005582FF50090EBE00050DBD00010CC3EB6D
:10030C009FF5F0EA9E42F0E99D42F0E89C45F060D2
:09031C0007CC4820E701B3EC22F4
:1003250075F020800E75F010800575F0087D007E53
:10033500007F003392D530D5031206ACEC33401064
:10034500EF33FFEE33FEED33FDEC33FCD5F0ED225C
:0E035500E5F0247EA2D513CC92E7CDCEFF2298
:10036300EDD2E7CD33EC3392D524814006E4FFFE92
:10037300FDFC22FCE4CFCECDCC24E0501174FF80F1
:10038300EDC3CC13CCCD13CDCE13CECF13CF04708E
:07039300F030D5DE0206ACDC
:1006F000E57A2466F8E6057A22786330080278669F
:10070000E475F0011206BA0205862001EB7F2ED2B5
:10071000018018EF540F2490D43440D4FF30050BDF
:10072000EF24BFB41A0050032461FFE57B6002157B
:100730007B057EE57E7002057D30080D7863E475EB
:10074000F0011206BAEF0205CC020F067403D208BC
:100750008003E4C208F57A8B638A648965E4F57BDB
:10076000F57DF57EE57B60077F2012072B80F57510
:100770007CFFC202C201C203C204C206C207C20990
:100780001206F9FF700D3008057F0012073CAF7E9E
:10079000AE7D22B4255FC2D5C2051206F9FF24D072
:1007A000B40A00501A75F00A787B30D50508B6FFF8
:1007B0000106C6A426F620D5047002D20480D924EE
:1007C000CFB41A00EF5004C2E5D205020A29D202C2
:1007D00080C6D20180C0D20380BCD2D580BAD206F6
:1007E00080B47F2012072B2003077401B57B0040E3
:1007F000F11206F0FF12072B020764D209D207801C
:10080000951206F0FB1206F0FA1206F0F94A4B7048
:100810000679207A0B7BFF20032EE57B602A7E0081
:100820008E8275830012059F60060EEE657C70F067
:10083000C2D5EBC0E0EAC0E0E9C0E0EE120A89D020
:10084000E0F9D0E0FAD0E0FB120586FF60AAEBC029
:10085000E0EAC0E0E9C0E012072BD0E02401F9D0C3
:10086000E03400FAD0E0FBE57C0460DCD57CD98084
:1008700087D20380A2120A6C60F7E57C7001041233
:1008800003E4A97C600DE57C600914F57C120B1370
:10089000EF60F3EA30E702F404C3995077EAF425F5
:1008A0007C0430E701E404F57C800D120A6C60C121
:1008B000EA057C257C1203E4EA7879F630E701E466
:1008C000257C04D57C0420060114120A89E4C0E0CA
:1008D000120B137879E6601320E70714F61207135A
:1008E000802204F6D0E014C0E07F00120713E57CFC
:1008F000600712070A157C800B30060312070AD026
:10090000E0020764D0E00480C5120A6C60A0E57CB8
:10091000041203E47879EAF6E57C2006026001041B
:050920002404120A8905
:1009250074FF04C0E0120B13120713E57C200602C6
:10093500600312070AD0E0B57CE87F4512071D78F1
:1009450079E67F2B30E7047F2DF404C0E012072BF6
:10095500D0E075F00A84C0F0120714D0E012071435
:10096500020764791080027908C207C2098008D29B
:10097500D5790A8004790AC2D5E57C047002F57C34
:10098500E4FAFDFEFF1206F0FC7B082002131206B6
:10099500F0FD7B1030010A1206F0FE1206F0FF7B17
:1009A50020EC3382D592D55013C3E43001069FFF66
:1009B500E49EFEE42002039DFDE49CFCE4CBF8C22A
:1009C50002EC700CCFCECDCCE824F8F870F380178C
:1009D500C3EF33FFEE33FEED33FDEC33FCEB33FBBE
:1009E500994002FB0FD8E9EB300205F8D0E0C44886
:1009F500B202C0E00AEC4D4E4F78207B0070C2EA8F
:100A0500B57C0040BCC0E0120A8BD0F0D0E02002DB
:100A150004C4C0E0C4B202C0F0120714D0F0D5F08F
:100A2500EB0207641206CA08015309685807D24C3D
:100A350007CE42096C4F09744409744907E7430915
:100A45007A5508AB460909450875470B405007D646
:100A55002D07DA2E07FD2B07DE2307FB200B292A9E
:100A6500079648000007F5E57CB4FF03757C061280
:100A750006F0FC1206F0FD1206F0FE1206F0FF78F5
:100A850072020413790AA2D5200414300609B9109C
:100A9500020404B9080104A2D5200702500104206C
:100AA50003689203B57B005034C0E07F2030041901
:100AB5007F30A20372077206500F120AE2C203C208
:100AC50007C206C2097F30800F300603E9C0E01275
:100AD500072B300603D0E0F9D0E0B57BCC30061704
:100AE5007F30B9100C12072B7F583005077F7880AF
:100AF50003B9080312072B3003057F2D02072B7F4F
:100B0500202009F87F2B2007F322920380CF7F0056
:100B1500B4070050052472F8E6FF22286E756C6C48
:100B25002900D2021206F03002F8C202787B30D5D5
:100B35000108F60207962D504349581206F0240382
:100B4500B405004001E4900B3B9312071C743A1264
:0A0B5500071CD204757B0402096836
:10039A00E9D2E7C933E833F892D5EDD2E7CD33ECA9
:0703AA0033FC5002B2D52222
:1003B100EC30E7100FBF000C0EBE00080DBD0004AD
:1003C1000BEB6014A2D5EB13FCED92E7FD2274FF59
:1003D100FCFDFEFF22E480F8A2D574FF13FC7D80B2
:0303E100E480EFC6
:1003E400F920E72824F950037907E4F42402FB18E0
:1003F400DBFDE624FB5014E9600DE4F618E604F690
:0F040400B40A08E4F6D9F57401F60A22C2D5222B
:10041300ED33EC3392D5FA602AB4FF33EDC2E77BB8
:10042300FF60067A047938E4227A04794120D504FE
:100433007A04793C224E614E002B494E46002D49E9
:100443004E4600E47A08F608DAFC7B00740722E8DB
:10045300C0E0ECC0E0EDC0E0EEC0E0EFC0E0EA7564
:10046300F010A4CAABF075F04DA42BFBE435F0FCFF
:10047300EA2410FAEB34C5FBEC34D9FCEDC2E7FFF8
:1004830075F056A4F42411C5F0F434C58FF0A42AF2
:10049300E5F03BE43CF620E714120546D0E0FFD03C
:1004A300E0FED0E0FDD0E0FC12020F8014F4041251
:1004B3000546D0E0FFD0E0FED0E0FDD0E0FC120125
:1004C30006D0E0F8E6FAEDD2E7CD33EC332482FB35
:1004D300E4C3CF33CFCE33CECD33CD33DBF37B0782
:1004E30075F00A846004F6081B0AE5F0F6088FF03D
:1004F300740AA4FFACF08EF0740AA42CFEACF05086
:10050300010C8DF0740AA42CFDE435F0F608DBDE53
:0305130074072248
:100516003F8000004120000042C80000447A0000ED
:10052600461C400047C35000497424004B1896806F
:100536004CBEBC205A0E1BCA6753C21C749DC5AE66
:10054600FB60065407601C2323120574EB543860C5
:100556000912056012056F120106ECF8EDF9EEFAC4
:10056600EFCB22EB12056F80F1543803241C900563
:1005760016FE93FC0EEE93FD0EEE930ECE93FF2227
:100BFF00020CFDE493A3F8E493A34003F68001F203
:100C0F0008DFF48029E493A3F85407240CC8C333F6
:100C1F00C4540F4420C8834004F456800146F6DFC5
:100C2F00E4800B0102040810204080900E32E47E15
:100C3F00019360BCA3FF543F30E509541FFEE493BA
:100C4F00A360010ECF54C025E060A840B8E493A381
:100C5F00FAE493A3F8E493A3C8C582C8CAC583CAAC
:100C6F00F0A3C8C582C8CAC583CADFE9DEE780BE64
:010E71000080
:10058600BB010689828A83E0225002E722BBFE0273
:09059600E32289828A83E49322A6
:10059F00BB010CE58229F582E5833AF583E0225011
:1005AF0006E92582F8E622BBFE06E92582F8E2225B
:0D05BF00E58229F582E5833AF583E4932275
:1005CC00BB010689828A83F0225002F722BBFE010E
:0205DC00F32208
:1005DE0075F008758200EF2FFFEE33FECD33CDCCD4
:1005EE0033CCC58233C5829BED9AEC99E582984057
:1005FE000CF582EE9BFEED9AFDEC99FC0FD5F0D634
:10060E00E4CEFBE4CDFAE4CCF9A88222B800C1B95D
:10061E000059BA002DEC8BF084CFCECDFCE5F0CB9B
:10062E00F97818EF2FFFEE33FEED33FDEC33FCEBD4
:10063E0033FB10D703994004EB99FB0FD8E5E4F98F
:10064E00FA227818EF2FFFEE33FEED33FDEC33FC7C
:10065E00C933C910D7059BE99A4007EC9BFCE99A70
:10066E00F90FD8E0E4C9FAE4CCFB2275F010EF2FB5
:10067E00FFEE33FEED33FDCC33CCC833C810D707B5
:10068E009BEC9AE899400AED9BFDEC9AFCE899F8F0
:0E069E000FD5F0DAE4CDFBE4CCFAE4C8F92283
:0E06AC00C3E49FFFE49EFEE49DFDE49CFC225F
:1006BA00FAE6FB0808E6F925F0F618E6CA3AF62241
:1006CA00D083D082F8E4937012740193700DA3A3BF
:1006DA0093F8740193F5828883E4737402936860D3
:0606EA00EFA3A3A380DFD3
:100F0600EFB40A07740D120F11740A309811A899DC
:100F1600B8130CC2983098FDA899C298B811F6304B
:070F260099FDC299F5992223
:00000001FF
